:1000A9003C42A98585A9423C3C42A18585A1423CA7
:0800B9003C42A58989A5423CE7
:10000300E4F509F50A1200E2E4F508C3E5089408EB
:10001300748094805014E50825099000A993FD7C11
:1000230000AF08120087050880E1050AD3E50A94AA
:100033000F7480948040D1E4F50A74082509F5090A
:0E004300D394107480948040BFE4F50980BA15
:1000C100EF1FAC0670011E4C600A7D027CEFDCFE66
:0400D100DDFC80ECE6
:0100D5002208
:02005100AD07F9
:10005300E4FBEBC394087480948050237E00748087
:10006300A803088006CEA2E713CE13D8F8FFEDF558
:1000730082EF558224FF92B4D2B6C2B60B80D3D29C
:03008300B5C2B54E
:010086002257
:0500E200C2B6C2B52208
:10008700AA07AF05120051AF02A8077480088002C3
:10009700C313D8FCF4F5807F017E001200C1758080
:0200A700FF2236
:030000000200D625
:0C00D600787FE4F6D8FD75810A02000373
:00000001FF
